{
  "contractName": "ConsentManager",
  "abi": [
    {
      "anonymous": false,
      "inputs": [
        {
          "indexed": false,
          "name": "consent",
          "type": "address"
        },
        {
          "indexed": false,
          "name": "dataUser",
          "type": "address"
        },
        {
          "indexed": false,
          "name": "dataSubject",
          "type": "address"
        }
      ],
      "name": "SignaturesRequired",
      "type": "event",
      "signature": "0x01a26cecf0f7b731da0c2f895e2bcea5bc810cc2f37cce9cfb9a28eed4dd98ac"
    },
    {
      "anonymous": false,
      "inputs": [
        {
          "indexed": false,
          "name": "consent",
          "type": "address"
        },
        {
          "indexed": false,
          "name": "withConsent",
          "type": "address"
        }
      ],
      "name": "ConsentUpdated",
      "type": "event",
      "signature": "0xe7d7823be9d101e42d699d07774836d011b7d19187174894fc6e7004bf228517"
    },
    {
      "constant": false,
      "inputs": [
        {
          "name": "dataUser",
          "type": "address"
        },
        {
          "name": "dataSubject",
          "type": "address"
        },
        {
          "name": "swarmLocation",
          "type": "bytes32"
        }
      ],
      "name": "createConsent",
      "outputs": [
        {
          "name": "",
          "type": "address"
        }
      ],
      "payable": false,
      "stateMutability": "nonpayable",
      "type": "function",
      "signature": "0x24125957"
    },
    {
      "constant": false,
      "inputs": [
        {
          "name": "consent",
          "type": "address"
        },
        {
          "name": "swarmLocation",
          "type": "bytes32"
        }
      ],
      "name": "updateConsent",
      "outputs": [
        {
          "name": "",
          "type": "address"
        }
      ],
      "payable": false,
      "stateMutability": "nonpayable",
      "type": "function",
      "signature": "0xb5ed7c8c"
    },
    {
      "constant": true,
      "inputs": [],
      "name": "getUserConsents",
      "outputs": [
        {
          "name": "",
          "type": "address[]"
        }
      ],
      "payable": false,
      "stateMutability": "view",
      "type": "function",
      "signature": "0x84d69745"
    },
    {
      "constant": true,
      "inputs": [],
      "name": "getSubjectConsents",
      "outputs": [
        {
          "name": "",
          "type": "address[]"
        }
      ],
      "payable": false,
      "stateMutability": "view",
      "type": "function",
      "signature": "0x41764cc4"
    },
    {
      "constant": true,
      "inputs": [
        {
          "name": "swarmHash",
          "type": "bytes32"
        }
      ],
      "name": "getConsentsFor",
      "outputs": [
        {
          "name": "",
          "type": "address[]"
        }
      ],
      "payable": false,
      "stateMutability": "view",
      "type": "function",
      "signature": "0xe5f41498"
    }
  ],
  "bytecode": "0x608060405234801561001057600080fd5b50611424806100206000396000f3fe6080604052600436106100535763ffffffff60e060020a60003504166324125957811461005857806341764cc41461008e57806384d69745146100b0578063b5ed7c8c146100c5578063e5f41498146100e5575b600080fd5b34801561006457600080fd5b5061007861007336600461088a565b610105565b6040516100859190610a07565b60405180910390f35b34801561009a57600080fd5b506100a36101d3565b60405161008591906109f6565b3480156100bc57600080fd5b506100a361023e565b3480156100d157600080fd5b506100786100e03660046108f5565b6102a5565b3480156100f157600080fd5b506100a36101003660046108d7565b610606565b600080848484610113610818565b61011f939291906109ce565b604051809103906000f08015801561013b573d6000803e3d6000fd5b50905061014781610672565b50600083815260026020908152604080832080546001810182559084529190922001805473ffffffffffffffffffffffffffffffffffffffff1916600160a060020a038416179055517f01a26cecf0f7b731da0c2f895e2bcea5bc810cc2f37cce9cfb9a28eed4dd98ac906101c190839088908890610a15565b60405180910390a190505b9392505050565b3360009081526001602090815260409182902080548351818402810184019094528084526060939283018282801561023457602002820191906000526020600020905b8154600160a060020a03168152600190910190602001808311610216575b5050505050905090565b336000908152602081815260409182902080548351818402810184019094528084526060939283018282801561023457602002820191906000526020600020908154600160a060020a03168152600190910190602001808311610216575050505050905090565b60008083600160a060020a031663ff30c1856040518163ffffffff1660e060020a02815260040160206040518083038186803b1580156102e457600080fd5b505afa1580156102f8573d6000803e3d6000fd5b505050506040513d601f19601f8201168201806040525061031c9190810190610864565b84600160a060020a031663a35a45936040518163ffffffff1660e060020a02815260040160206040518083038186803b15801561035857600080fd5b505afa15801561036c573d6000803e3d6000fd5b505050506040513d601f19601f820116820180604052506103909190810190610864565b84610399610818565b6103a5939291906109ce565b604051809103906000f0801580156103c1573d6000803e3d6000fd5b506040517f88d1313e000000000000000000000000000000000000000000000000000000008152909150600160a060020a038516906388d1313e9061040a908490600401610a07565b602060405180830381600087803b15801561042457600080fd5b505af1158015610438573d6000803e3d6000fd5b505050506040513d601f19601f8201168201806040525061045c919081019061092f565b50600083815260026020908152604080832080546001810182559084529190922001805473ffffffffffffffffffffffffffffffffffffffff1916600160a060020a038716179055517fe7d7823be9d101e42d699d07774836d011b7d19187174894fc6e7004bf228517906104d49086908490610a3d565b60405180910390a17f01a26cecf0f7b731da0c2f895e2bcea5bc810cc2f37cce9cfb9a28eed4dd98ac8185600160a060020a031663ff30c1856040518163ffffffff1660e060020a02815260040160206040518083038186803b15801561053a57600080fd5b505afa15801561054e573d6000803e3d6000fd5b505050506040513d601f19601f820116820180604052506105729190810190610864565b86600160a060020a031663a35a45936040518163ffffffff1660e060020a02815260040160206040518083038186803b1580156105ae57600080fd5b505afa1580156105c2573d6000803e3d6000fd5b505050506040513d601f19601f820116820180604052506105e69190810190610864565b6040516105f593929190610a15565b60405180910390a190505b92915050565b60008181526002602090815260409182902080548351818402810184019094528084526060939283018282801561066657602002820191906000526020600020905b8154600160a060020a03168152600190910190602001808311610648575b50505050509050919050565b600080600083600160a060020a031663ff30c1856040518163ffffffff1660e060020a02815260040160206040518083038186803b1580156106b357600080fd5b505afa1580156106c7573d6000803e3d6000fd5b505050506040513d601f19601f820116820180604052506106eb9190810190610864565b600160a060020a0390811682526020808301939093526040918201600090812080546001808201835591835285832001805473ffffffffffffffffffffffffffffffffffffffff1916938816938417905583517fa35a459300000000000000000000000000000000000000000000000000000000815293519094919363a35a4593926004808301939192829003018186803b15801561078957600080fd5b505afa15801561079d573d6000803e3d6000fd5b505050506040513d601f19601f820116820180604052506107c19190810190610864565b600160a060020a039081168252602080830193909352604090910160009081208054600181018255908252929020909101805473ffffffffffffffffffffffffffffffffffffffff19169184169190911790555090565b60405161094580610aa683390190565b60006101cc8235610a62565b60006101cc8251610a62565b60006101cc8235610a6d565b60006101cc8235610a7c565b60006101cc8251610a87565b60006020828403121561087657600080fd5b60006108828484610834565b949350505050565b60008060006060848603121561089f57600080fd5b60006108ab8686610828565b93505060206108bc86828701610828565b92505060406108cd86828701610840565b9150509250925092565b6000602082840312156108e957600080fd5b60006108828484610840565b6000806040838503121561090857600080fd5b6000610914858561084c565b925050602061092585828601610840565b9150509250929050565b60006020828403121561094157600080fd5b60006108828484610858565b61095681610a9a565b82525050565b61095681610a62565b600061097082610a5e565b80845260208401935061098283610a58565b60005b828110156109b2576109988683516109c5565b6109a182610a58565b602096909601959150600101610985565b5093949350505050565b61095681610a6d565b61095681610a7c565b606081016109dc828661095c565b6109e9602083018561095c565b61088260408301846109bc565b602080825281016101cc8184610965565b6020810161060082846109c5565b60608101610a2382866109c5565b610a30602083018561094d565b610882604083018461094d565b60408101610a4b82856109c5565b6101cc60208301846109c5565b60200190565b5190565b600061060082610a70565b90565b600160a060020a031690565b600061060082610a62565b600060048210610a9657600080fd5b5090565b600061060082610a7c56fe608060405234801561001057600080fd5b50604051606080610945833981018060405261002f9190810190610098565b6000805460ff1916905560015560028054600160a060020a0319908116600160a060020a039485161790915560038054909116919092161760a060020a61ffff0219169055610105565b600061008582516100f1565b9392505050565b60006100858251610102565b6000806000606084860312156100ad57600080fd5b60006100b98686610079565b93505060206100ca86828701610079565b92505060406100db8682870161008c565b9150509250925092565b600160a060020a031690565b60006100fc826100e5565b92915050565b90565b610831806101146000396000f3fe6080604052600436106100ce5763ffffffff7c0100000000000000000000000000000000000000000000000000000000600035041662f7063881146100d05780630f57877b146100fb578063200d2ed21461011d5780636625fe0f1461013257806378cd3c731461015f57806388d1313e146101815780639b4afffa146101a1578063a35a4593146101b6578063bb5d40eb146101cb578063dba7c1b2146101e0578063e66a6b2214610200578063feac51f514610215578063ff30c1851461022a578063ff4c4d541461023f575b005b3480156100dc57600080fd5b506100e5610254565b6040516100f2919061079e565b60405180910390f35b34801561010757600080fd5b50610110610297565b6040516100f29190610790565b34801561012957600080fd5b506100e56102a6565b34801561013e57600080fd5b5061015261014d3660046106bd565b6102af565b6040516100f2919061076e565b34801561016b57600080fd5b50610174610342565b6040516100f29190610782565b34801561018d57600080fd5b506100e561019c36600461071e565b610363565b3480156101ad57600080fd5b506101746103bd565b3480156101c257600080fd5b506101526103df565b3480156101d757600080fd5b506101746103ee565b3480156101ec57600080fd5b506101526101fb3660046106bd565b610409565b34801561020c57600080fd5b50610174610496565b34801561022157600080fd5b506100ce6104e3565b34801561023657600080fd5b50610152610537565b34801561024b57600080fd5b506100e5610546565b60008060005460ff16600381111561026857fe5b1461027257600080fd5b61027a610496565b1561028d576000805460ff191660011790555b5060005460ff1690565b600454600160a060020a031681565b60005460ff1681565b60035460009074010000000000000000000000000000000000000000900460ff16156102da57600080fd5b6002546102f390600160a060020a031686868686610570565b60038054911515740100000000000000000000000000000000000000000274ff000000000000000000000000000000000000000019909216919091179055610339610254565b50949350505050565b60035474010000000000000000000000000000000000000000900460ff1690565b600354600090600160a060020a0316331461037d57600080fd5b6000805460ff1916600217905560048054600160a060020a039390931673ffffffffffffffffffffffffffffffffffffffff199093169290921790915590565b6003547501000000000000000000000000000000000000000000900460ff1690565b600354600160a060020a031681565b6000600160005460ff16600381111561040357fe5b14905090565b6003546000907501000000000000000000000000000000000000000000900460ff161561043557600080fd5b60035461044e90600160a060020a031686868686610570565b6003805491151575010000000000000000000000000000000000000000000275ff00000000000000000000000000000000000000000019909216919091179055610339610254565b60035460009074010000000000000000000000000000000000000000900460ff1680156104de57506003547501000000000000000000000000000000000000000000900460ff165b905090565b600354600160a060020a031633146104fa57600080fd5b600354604051600160a060020a0390911690303180156108fc02916000818181858888f19350505050158015610534573d6000803e3d6000fd5b50565b600254600160a060020a031681565b600354600090600160a060020a0316331461056057600080fd5b6000805460ff1916600317905590565b604080518082018252601c8082527f19457468657265756d205369676e6564204d6573736167653a0a33320000000060208084019182529351600094859385938b939092019182918083835b602083106105db5780518252601f1990920191602091820191016105bc565b51815160209384036101000a600019018019909216911617905292019384525060408051808503815284830180835281519184019190912060009182905282860180845281905260ff8d166060870152608086018c905260a086018b90529151919650945060019360c08082019450601f19830192918290030190855afa15801561066a573d6000803e3d6000fd5b5050604051601f190151600160a060020a03908116908b161494505050505095945050505050565b600061069e82356107d8565b9392505050565b600061069e82356107db565b600061069e82356107e6565b600080600080608085870312156106d357600080fd5b60006106df8787610692565b94505060206106f0878288016106b1565b935050604061070187828801610692565b925050606061071287828801610692565b91505092959194509250565b60006020828403121561073057600080fd5b600061073c84846106a5565b949350505050565b61074d816107ac565b82525050565b61074d816107b7565b61074d816107db565b61074d816107ec565b6020810161077c8284610744565b92915050565b6020810161077c8284610753565b6020810161077c828461075c565b6020810161077c8284610765565b600061077c826107cc565b151590565b6000600482106107c857fe5b5090565b600160a060020a031690565b90565b600061077c826107ac565b60ff1690565b600061077c826107bc56fea265627a7a7230582046acc3e67d6c4e0c1f06c324cb018d4399735fcab38348251fc857e350acd6096c6578706572696d656e74616cf50037a265627a7a72305820f14b7a9663f49e0f116278f31680897e7906fd0fba54309156c826ceff18bb946c6578706572696d656e74616cf50037",
  "source": "// TEX 05.06.2019\npragma solidity ^0.5.0;\npragma experimental ABIEncoderV2;\n\ncontract ConsentManager {\n    event SignaturesRequired(Consent consent, address dataUser, address dataSubject);\n    event ConsentUpdated(Consent consent, Consent withConsent); \n    \n    /////////////////////////////////////////////////////////////////\n    // these could be omited \n    /*address[] dataSubjects;\n    address[] dataUsers;\n    mapping(address => uint256) internal existingDataSubject;\n    mapping(address => uint256) internal existingDataUsers; */\n    /////////////////////////////////////////////////////////////////\n    \n    mapping(address => Consent[]) internal userConsents; \n    mapping(address => Consent[]) internal subjectConsents;\n    mapping(bytes32 => Consent[]) internal consentsOnSwarm; \n    \n    \n    function createConsent(address payable dataUser, address payable dataSubject, bytes32 swarmLocation) public returns (Consent) {\n        Consent consent = new Consent(dataUser, dataSubject, swarmLocation);\n        \n        addConsent(consent);\n        \n        consentsOnSwarm[swarmLocation].push(consent);\n        \n        emit SignaturesRequired(consent, dataUser, dataSubject);\n        return consent;\n    }\n    \n    function updateConsent(Consent consent, bytes32 swarmLocation) public returns (Consent) {\n        Consent newConsent = new Consent(consent.dataUser(), consent.dataSubject(), swarmLocation);\n        \n        consent.updateConsent(newConsent);\n        \n        consentsOnSwarm[swarmLocation].push(consent);\n        \n        emit ConsentUpdated(consent, newConsent);\n        emit SignaturesRequired(newConsent, consent.dataUser(), consent.dataSubject());\n        return newConsent;\n    }\n    \n    // others can add KeyValueTrees (but need to set access rights by themselfs)\n    function addConsent(Consent consent) private returns (Consent) {\n\n        userConsents[consent.dataUser()].push(consent);\n        subjectConsents[consent.dataSubject()].push(consent);\n        \n        return consent;\n    }\n    \n    function getUserConsents() public view returns (Consent[] memory) {\n        return userConsents[msg.sender];\n    }\n    function getSubjectConsents() public view returns (Consent[] memory) {\n        return subjectConsents[msg.sender];\n    }\n    function getConsentsFor(bytes32 swarmHash) public view returns (Consent[] memory) {\n        return consentsOnSwarm[swarmHash];\n    }\n}\n\ncontract Consent {\n    function () external payable {    }\n    function removeFunds()  public { \n        require(msg.sender == dataSubject);\n        dataSubject.transfer(address(this).balance); \n    }\n\n    constructor(address payable dataUserAddress, address payable dataSubjectAddress, bytes32 swarmLocation) public {\n        status = ConsentStatus.AWAITINGSIGNATURE; \n        swarmHash = swarmLocation;\n        \n        dataUser = dataUserAddress;\n        dataSubject = dataSubjectAddress;\n        userSigned = false;\n        subjectSigned = false;\n        //validUntil = block.number + (365 * 24 * 60 * 60); // one year until valid\n    }\n    \n    enum ConsentStatus {AWAITINGSIGNATURE,ACTIVE,EXPIRED,REVOKED}\n    ConsentStatus public status;\n    \n    bytes32 private swarmHash;\n    address payable public dataUser;\n    address payable public dataSubject;\n    //uint256 public validUntil;\n    \n    bool private userSigned;\n    bool private subjectSigned;\n    \n    Consent public updatedConsent;\n\n    function revokeConsent() public returns (ConsentStatus) {\n        require(msg.sender==dataSubject);\n        status = ConsentStatus.REVOKED;  \n    }\n    \n    function updateConsent(Consent consent) public returns (ConsentStatus) {\n        require(msg.sender==dataSubject);\n        status = ConsentStatus.EXPIRED;  \n        updatedConsent = consent;\n    }\n    \n    function isValid() public view returns (bool) {\n        /*if(block.number>validUntil)\n        {\n           status = ConsentStatus.EXPIRED;  \n           return false;\n        }*/\n           \n        return status==ConsentStatus.ACTIVE;\n    }\n\n    function isSigned() public view returns (bool) { return userSigned && subjectSigned; }\n    function isUserSigned() public view returns (bool) { return userSigned;  }\n    function isSubjectSigned() public view returns (bool) { return subjectSigned;  }\n    \n    // transition to ACTIVE only when both parties signed this consent\n    function transitionToActive() public returns (ConsentStatus) { \n        require(status == ConsentStatus.AWAITINGSIGNATURE);\n        if(isSigned()) \n           status = ConsentStatus.ACTIVE;\n           \n        return status;\n    }\n\n    function signUser(bytes32 h, uint8 v, bytes32 r, bytes32 s) public returns (address) {\n        require(userSigned==false);\n        userSigned = signFor(dataUser, h,v,r,s);\n        transitionToActive();\n    }\n    function signSubject(bytes32 h, uint8 v, bytes32 r, bytes32 s) public returns (address) {\n        require(subjectSigned==false);\n        subjectSigned = signFor(dataSubject, h,v,r,s);\n        transitionToActive();\n    }\n    \n    function signFor(address payable forParty, bytes32 h, uint8 v, bytes32 r, bytes32 s) private pure returns (bool) {\n        bytes memory prefix = \"\\x19Ethereum Signed Message:\\n32\";\n\n        bytes32 dataHash = keccak256(abi.encodePacked(prefix, h));\n        address addr = ecrecover(dataHash, v, r, s);\n        \n        return (addr == forParty);\n    }\n}",
  "sourcePath": "/Users/significance/Code/df/multibox2/contracts/ConsentManagment.sol",
  "compiler": {
    "name": "solc",
    "version": "0.5.0+commit.1d4f565a.Emscripten.clang"
  },
  "schemaVersion": "3.0.0",
  "updatedAt": "2019-06-13T09:20:16.994Z",
  "devdoc": {
    "methods": {}
  },
  "userdoc": {
    "methods": {}
  }
}